{
  "contractName": "Congress",
  "abi": [
    {
      "constant": true,
      "inputs": [
        {
          "name": "",
          "type": "uint256"
        }
      ],
      "name": "proposals",
      "outputs": [
        {
          "name": "recipient",
          "type": "address"
        },
        {
          "name": "amount",
          "type": "uint256"
        },
        {
          "name": "description",
          "type": "string"
        },
        {
          "name": "minExecutionDate",
          "type": "uint256"
        },
        {
          "name": "executed",
          "type": "bool"
        },
        {
          "name": "proposalPassed",
          "type": "bool"
        },
        {
          "name": "numberOfVotes",
          "type": "uint256"
        },
        {
          "name": "currentResult",
          "type": "int256"
        },
        {
          "name": "proposalHash",
          "type": "bytes32"
        }
      ],
      "payable": false,
      "stateMutability": "view",
      "type": "function"
    },
    {
      "constant": true,
      "inputs": [
        {
          "name": "",
          "type": "address"
        }
      ],
      "name": "memberId",
      "outputs": [
        {
          "name": "",
          "type": "uint256"
        }
      ],
      "payable": false,
      "stateMutability": "view",
      "type": "function"
    },
    {
      "constant": true,
      "inputs": [],
      "name": "numProposals",
      "outputs": [
        {
          "name": "",
          "type": "uint256"
        }
      ],
      "payable": false,
      "stateMutability": "view",
      "type": "function"
    },
    {
      "constant": true,
      "inputs": [
        {
          "name": "",
          "type": "uint256"
        }
      ],
      "name": "members",
      "outputs": [
        {
          "name": "member",
          "type": "address"
        },
        {
          "name": "name",
          "type": "string"
        },
        {
          "name": "memberSince",
          "type": "uint256"
        }
      ],
      "payable": false,
      "stateMutability": "view",
      "type": "function"
    },
    {
      "constant": true,
      "inputs": [],
      "name": "debatingPeriodInMinutes",
      "outputs": [
        {
          "name": "",
          "type": "uint256"
        }
      ],
      "payable": false,
      "stateMutability": "view",
      "type": "function"
    },
    {
      "constant": true,
      "inputs": [],
      "name": "minimumQuorum",
      "outputs": [
        {
          "name": "",
          "type": "uint256"
        }
      ],
      "payable": false,
      "stateMutability": "view",
      "type": "function"
    },
    {
      "constant": true,
      "inputs": [],
      "name": "owner",
      "outputs": [
        {
          "name": "",
          "type": "address"
        }
      ],
      "payable": false,
      "stateMutability": "view",
      "type": "function"
    },
    {
      "constant": false,
      "inputs": [
        {
          "name": "_from",
          "type": "address"
        },
        {
          "name": "_value",
          "type": "uint256"
        },
        {
          "name": "_token",
          "type": "address"
        },
        {
          "name": "_extraData",
          "type": "bytes"
        }
      ],
      "name": "receiveApproval",
      "outputs": [],
      "payable": false,
      "stateMutability": "nonpayable",
      "type": "function"
    },
    {
      "constant": true,
      "inputs": [],
      "name": "majorityMargin",
      "outputs": [
        {
          "name": "",
          "type": "int256"
        }
      ],
      "payable": false,
      "stateMutability": "view",
      "type": "function"
    },
    {
      "constant": false,
      "inputs": [
        {
          "name": "newOwner",
          "type": "address"
        }
      ],
      "name": "transferOwnership",
      "outputs": [],
      "payable": false,
      "stateMutability": "nonpayable",
      "type": "function"
    },
    {
      "inputs": [
        {
          "name": "minimumQuorumForProposals",
          "type": "uint256"
        },
        {
          "name": "minutesForDebate",
          "type": "uint256"
        },
        {
          "name": "marginOfVotesForMajority",
          "type": "int256"
        }
      ],
      "payable": true,
      "stateMutability": "payable",
      "type": "constructor"
    },
    {
      "payable": true,
      "stateMutability": "payable",
      "type": "fallback"
    },
    {
      "anonymous": false,
      "inputs": [
        {
          "indexed": false,
          "name": "proposalID",
          "type": "uint256"
        },
        {
          "indexed": false,
          "name": "recipient",
          "type": "address"
        },
        {
          "indexed": false,
          "name": "amount",
          "type": "uint256"
        },
        {
          "indexed": false,
          "name": "description",
          "type": "string"
        }
      ],
      "name": "ProposalAdded",
      "type": "event"
    },
    {
      "anonymous": false,
      "inputs": [
        {
          "indexed": false,
          "name": "proposalID",
          "type": "uint256"
        },
        {
          "indexed": false,
          "name": "position",
          "type": "bool"
        },
        {
          "indexed": false,
          "name": "voter",
          "type": "address"
        },
        {
          "indexed": false,
          "name": "justification",
          "type": "string"
        }
      ],
      "name": "Voted",
      "type": "event"
    },
    {
      "anonymous": false,
      "inputs": [
        {
          "indexed": false,
          "name": "proposalID",
          "type": "uint256"
        },
        {
          "indexed": false,
          "name": "result",
          "type": "int256"
        },
        {
          "indexed": false,
          "name": "quorum",
          "type": "uint256"
        },
        {
          "indexed": false,
          "name": "active",
          "type": "bool"
        }
      ],
      "name": "ProposalTallied",
      "type": "event"
    },
    {
      "anonymous": false,
      "inputs": [
        {
          "indexed": false,
          "name": "member",
          "type": "address"
        },
        {
          "indexed": false,
          "name": "isMember",
          "type": "bool"
        }
      ],
      "name": "MembershipChanged",
      "type": "event"
    },
    {
      "anonymous": false,
      "inputs": [
        {
          "indexed": false,
          "name": "newMinimumQuorum",
          "type": "uint256"
        },
        {
          "indexed": false,
          "name": "newDebatingPeriodInMinutes",
          "type": "uint256"
        },
        {
          "indexed": false,
          "name": "newMajorityMargin",
          "type": "int256"
        }
      ],
      "name": "ChangeOfRules",
      "type": "event"
    },
    {
      "anonymous": false,
      "inputs": [
        {
          "indexed": false,
          "name": "sender",
          "type": "address"
        },
        {
          "indexed": false,
          "name": "amount",
          "type": "uint256"
        }
      ],
      "name": "receivedEther",
      "type": "event"
    },
    {
      "anonymous": false,
      "inputs": [
        {
          "indexed": false,
          "name": "_from",
          "type": "address"
        },
        {
          "indexed": false,
          "name": "_value",
          "type": "uint256"
        },
        {
          "indexed": false,
          "name": "_token",
          "type": "address"
        },
        {
          "indexed": false,
          "name": "_extraData",
          "type": "bytes"
        }
      ],
      "name": "receivedTokens",
      "type": "event"
    },
    {
      "constant": false,
      "inputs": [
        {
          "name": "targetMember",
          "type": "address"
        },
        {
          "name": "memberName",
          "type": "string"
        }
      ],
      "name": "addMember",
      "outputs": [],
      "payable": false,
      "stateMutability": "nonpayable",
      "type": "function"
    },
    {
      "constant": false,
      "inputs": [
        {
          "name": "targetMember",
          "type": "address"
        }
      ],
      "name": "removeMember",
      "outputs": [],
      "payable": false,
      "stateMutability": "nonpayable",
      "type": "function"
    },
    {
      "constant": false,
      "inputs": [
        {
          "name": "minimumQuorumForProposals",
          "type": "uint256"
        },
        {
          "name": "minutesForDebate",
          "type": "uint256"
        },
        {
          "name": "marginOfVotesForMajority",
          "type": "int256"
        }
      ],
      "name": "changeVotingRules",
      "outputs": [],
      "payable": false,
      "stateMutability": "nonpayable",
      "type": "function"
    },
    {
      "constant": false,
      "inputs": [
        {
          "name": "beneficiary",
          "type": "address"
        },
        {
          "name": "weiAmount",
          "type": "uint256"
        },
        {
          "name": "jobDescription",
          "type": "string"
        },
        {
          "name": "transactionBytecode",
          "type": "bytes"
        }
      ],
      "name": "newProposal",
      "outputs": [
        {
          "name": "proposalID",
          "type": "uint256"
        }
      ],
      "payable": false,
      "stateMutability": "nonpayable",
      "type": "function"
    },
    {
      "constant": false,
      "inputs": [
        {
          "name": "beneficiary",
          "type": "address"
        },
        {
          "name": "etherAmount",
          "type": "uint256"
        },
        {
          "name": "jobDescription",
          "type": "string"
        },
        {
          "name": "transactionBytecode",
          "type": "bytes"
        }
      ],
      "name": "newProposalInEther",
      "outputs": [
        {
          "name": "proposalID",
          "type": "uint256"
        }
      ],
      "payable": false,
      "stateMutability": "nonpayable",
      "type": "function"
    },
    {
      "constant": true,
      "inputs": [
        {
          "name": "proposalNumber",
          "type": "uint256"
        },
        {
          "name": "beneficiary",
          "type": "address"
        },
        {
          "name": "weiAmount",
          "type": "uint256"
        },
        {
          "name": "transactionBytecode",
          "type": "bytes"
        }
      ],
      "name": "checkProposalCode",
      "outputs": [
        {
          "name": "codeChecksOut",
          "type": "bool"
        }
      ],
      "payable": false,
      "stateMutability": "view",
      "type": "function"
    },
    {
      "constant": false,
      "inputs": [
        {
          "name": "proposalNumber",
          "type": "uint256"
        },
        {
          "name": "supportsProposal",
          "type": "bool"
        },
        {
          "name": "justificationText",
          "type": "string"
        }
      ],
      "name": "vote",
      "outputs": [
        {
          "name": "voteID",
          "type": "uint256"
        }
      ],
      "payable": false,
      "stateMutability": "nonpayable",
      "type": "function"
    },
    {
      "constant": false,
      "inputs": [
        {
          "name": "proposalNumber",
          "type": "uint256"
        },
        {
          "name": "transactionBytecode",
          "type": "bytes"
        }
      ],
      "name": "executeProposal",
      "outputs": [],
      "payable": false,
      "stateMutability": "nonpayable",
      "type": "function"
    }
  ],
  "bytecode": "0x6060604052604051606080620027cf83398101604052808051906020019091908051906020019091908051906020019091905050336000806101000a81548173ffffffffffffffffffffffffffffffffffffffff021916908373ffffffffffffffffffffffffffffffffffffffff160217905550620000948383836200014464010000000002620016d3176401000000009004565b620000c560006020604051908101604052806000815250620002076401000000000262001795176401000000009004565b6200013b6000809054906101000a900473ffffffffffffffffffffffffffffffffffffffff166040805190810160405280600781526020017f666f756e64657200000000000000000000000000000000000000000000000000815250620002076401000000000262001795176401000000009004565b505050620005de565b6000809054906101000a900473ffffffffffffffffffffffffffffffffffffffff1673ffffffffffffffffffffffffffffffffffffffff163373ffffffffffffffffffffffffffffffffffffffff16141515620001a057600080fd5b8260018190555081600281905550806003819055507fa439d3fa452be5e0e1e24a8145e715f4fd8b9c08c96a42fd82a855a85e5d57de60015460025460035460405180848152602001838152602001828152602001935050505060405180910390a1505050565b60008060009054906101000a900473ffffffffffffffffffffffffffffffffffffffff1673ffffffffffffffffffffffffffffffffffffffff163373ffffffffffffffffffffffffffffffffffffffff161415156200026557600080fd5b600660008473ffffffffffffffffffffffffffffffffffffffff1673ffffffffffffffffffffffffffffffffffffffff16815260200190815260200160002054905060008114156200031357600780549050600660008573ffffffffffffffffffffffffffffffffffffffff1673ffffffffffffffffffffffffffffffffffffffff16815260200190815260200160002081905550600780548091906001016200031091906200044b565b90505b6060604051908101604052808473ffffffffffffffffffffffffffffffffffffffff168152602001838152602001428152506007828154811015156200035557fe5b906000526020600020906003020160008201518160000160006101000a81548173ffffffffffffffffffffffffffffffffffffffff021916908373ffffffffffffffffffffffffffffffffffffffff1602179055506020820151816001019080519060200190620003c892919062000480565b50604082015181600201559050507f27b022af4a8347100c7a041ce5ccf8e14d644ff05de696315196faae8cd50c9b836001604051808373ffffffffffffffffffffffffffffffffffffffff1673ffffffffffffffffffffffffffffffffffffffff168152602001821515151581526020019250505060405180910390a1505050565b8154818355818115116200047b576003028160030283600052602060002091820191016200047a919062000507565b5b505050565b828054600181600116156101000203166002900490600052602060002090601f016020900481019282601f10620004c357805160ff1916838001178555620004f4565b82800160010185558215620004f4579182015b82811115620004f3578251825591602001919060010190620004d6565b5b5090506200050391906200056a565b5090565b6200056791905b808211156200056357600080820160006101000a81549073ffffffffffffffffffffffffffffffffffffffff021916905560018201600062000551919062000592565b6002820160009055506003016200050e565b5090565b90565b6200058f91905b808211156200058b57600081600090555060010162000571565b5090565b90565b50805460018160011615610100020316600290046000825580601f10620005ba5750620005db565b601f016020900490600052602060002090810190620005da91906200056a565b5b50565b6121e180620005ee6000396000f3006060604052600436106100fc576000357c0100000000000000000000000000000000000000000000000000000000900463ffffffff168063013cf08b146101695780630b1ca49a14610279578063237e9492146102b25780633910682114610318578063400e3949146103655780635daf08ca1461038e57806369bd3436146104645780638160f0b51461048d5780638da5cb5b146104b65780638f4ffcb11461050b578063aa02a90f146105af578063b1050da5146105d8578063b9f256cd146106b4578063bcca1fd314610790578063c127c247146107c5578063d3c0715b14610841578063eceb2945146108c6578063f2fde38b1461096c575b7fa398b89ba344a0b23a0b9de53db298b2a1a868b396c1878b7e9dcbafecd49b133334604051808373ffffffffffffffffffffffffffffffffffffffff1673ffffffffffffffffffffffffffffffffffffffff1681526020018281526020019250505060405180910390a1005b341561017457600080fd5b61018a60048080359060200190919050506109a5565b604051808a73ffffffffffffffffffffffffffffffffffffffff1673ffffffffffffffffffffffffffffffffffffffff1681526020018981526020018060200188815260200187151515158152602001861515151581526020018581526020018481526020018360001916600019168152602001828103825289818151815260200191508051906020019080838360005b8381101561023657808201518184015260208101905061021b565b50505050905090810190601f1680156102635780820380516001836020036101000a031916815260200191505b509a505050505050505050505060405180910390f35b341561028457600080fd5b6102b0600480803573ffffffffffffffffffffffffffffffffffffffff16906020019091905050610ad4565b005b34156102bd57600080fd5b610316600480803590602001909190803590602001908201803590602001908080601f01602080910402602001604051908101604052809392919081815260200183838082843782019150505050505091905050610d3a565b005b341561032357600080fd5b61034f600480803573ffffffffffffffffffffffffffffffffffffffff1690602001909190505061101d565b6040518082815260200191505060405180910390f35b341561037057600080fd5b610378611035565b6040518082815260200191505060405180910390f35b341561039957600080fd5b6103af600480803590602001909190505061103b565b604051808473ffffffffffffffffffffffffffffffffffffffff1673ffffffffffffffffffffffffffffffffffffffff16815260200180602001838152602001828103825284818151815260200191508051906020019080838360005b8381101561042757808201518184015260208101905061040c565b50505050905090810190601f1680156104545780820380516001836020036101000a031916815260200191505b5094505050505060405180910390f35b341561046f57600080fd5b61047761112c565b6040518082815260200191505060405180910390f35b341561049857600080fd5b6104a0611132565b6040518082815260200191505060405180910390f35b34156104c157600080fd5b6104c9611138565b604051808273ffffffffffffffffffffffffffffffffffffffff1673ffffffffffffffffffffffffffffffffffffffff16815260200191505060405180910390f35b341561051657600080fd5b6105ad600480803573ffffffffffffffffffffffffffffffffffffffff1690602001909190803590602001909190803573ffffffffffffffffffffffffffffffffffffffff1690602001909190803590602001908201803590602001908080601f0160208091040260200160405190810160405280939291908181526020018383808284378201915050505050509190505061115d565b005b34156105ba57600080fd5b6105c261136d565b6040518082815260200191505060405180910390f35b34156105e357600080fd5b61069e600480803573ffffffffffffffffffffffffffffffffffffffff1690602001909190803590602001909190803590602001908201803590602001908080601f0160208091040260200160405190810160405280939291908181526020018383808284378201915050505050509190803590602001908201803590602001908080601f01602080910402602001604051908101604052809392919081815260200183838082843782019150505050505091905050611373565b6040518082815260200191505060405180910390f35b34156106bf57600080fd5b61077a600480803573ffffffffffffffffffffffffffffffffffffffff1690602001909190803590602001909190803590602001908201803590602001908080601f0160208091040260200160405190810160405280939291908181526020018383808284378201915050505050509190803590602001908201803590602001908080601f01602080910402602001604051908101604052809392919081815260200183838082843782019150505050505091905050611663565b6040518082815260200191505060405180910390f35b341561079b57600080fd5b6107c360048080359060200190919080359060200190919080359060200190919050506116d3565b005b34156107d057600080fd5b61083f600480803573ffffffffffffffffffffffffffffffffffffffff1690602001909190803590602001908201803590602001908080601f01602080910402602001604051908101604052809392919081815260200183838082843782019150505050505091905050611795565b005b341561084c57600080fd5b6108b06004808035906020019091908035151590602001909190803590602001908201803590602001908080601f016020809104026020016040519081016040528093929190818152602001838380828437820191505050505050919050506119d2565b6040518082815260200191505060405180910390f35b34156108d157600080fd5b610952600480803590602001909190803573ffffffffffffffffffffffffffffffffffffffff1690602001909190803590602001909190803590602001908201803590602001908080601f01602080910402602001604051908101604052809392919081815260200183838082843782019150505050505091905050611c34565b604051808215151515815260200191505060405180910390f35b341561097757600080fd5b6109a3600480803573ffffffffffffffffffffffffffffffffffffffff16906020019091905050611d1d565b005b6004818154811015156109b457fe5b90600052602060002090600a02016000915090508060000160009054906101000a900473ffffffffffffffffffffffffffffffffffffffff1690806001015490806002018054600181600116156101000203166002900480601f016020809104026020016040519081016040528092919081815260200182805460018160011615610100020316600290048015610a8c5780601f10610a6157610100808354040283529160200191610a8c565b820191906000526020600020905b815481529060010190602001808311610a6f57829003601f168201915b5050505050908060030154908060040160009054906101000a900460ff16908060040160019054906101000a900460ff16908060050154908060060154908060070154905089565b60008060009054906101000a900473ffffffffffffffffffffffffffffffffffffffff1673ffffffffffffffffffffffffffffffffffffffff163373ffffffffffffffffffffffffffffffffffffffff16141515610b3157600080fd5b6000600660008473ffffffffffffffffffffffffffffffffffffffff1673ffffffffffffffffffffffffffffffffffffffff1681526020019081526020016000205414151515610b8057600080fd5b600660008373ffffffffffffffffffffffffffffffffffffffff1673ffffffffffffffffffffffffffffffffffffffff1681526020019081526020016000205490505b600160078054905003811015610cb957600760018201815481101515610be557fe5b9060005260206000209060030201600782815481101515610c0257fe5b90600052602060002090600302016000820160009054906101000a900473ffffffffffffffffffffffffffffffffffffffff168160000160006101000a81548173ffffffffffffffffffffffffffffffffffffffff021916908373ffffffffffffffffffffffffffffffffffffffff16021790555060018201816001019080546001816001161561010002031660029004610c9e929190611dbb565b50600282015481600201559050508080600101915050610bc3565b6007600160078054905003815481101515610cd057fe5b9060005260206000209060030201600080820160006101000a81549073ffffffffffffffffffffffffffffffffffffffff0219169055600182016000610d169190611e42565b600282016000905550506007805480919060019003610d359190611e8a565b505050565b6000600483815481101515610d4b57fe5b90600052602060002090600a02019050806003015442118015610d7d57508060040160009054906101000a900460ff16155b8015610e6957508060000160009054906101000a900473ffffffffffffffffffffffffffffffffffffffff16816001015483604051808473ffffffffffffffffffffffffffffffffffffffff1673ffffffffffffffffffffffffffffffffffffffff166c0100000000000000000000000002815260140183815260200182805190602001908083835b602083101515610e2b5780518252602082019150602081019050602083039250610e06565b6001836020036101000a0380198251168184511680821785525050505050509050019350505050604051809103902060001916816007015460001916145b8015610e7b5750600154816005015410155b1515610e8657600080fd5b60035481600601541315610f8e5760018160040160006101000a81548160ff0219169083151502179055508060000160009054906101000a900473ffffffffffffffffffffffffffffffffffffffff1673ffffffffffffffffffffffffffffffffffffffff1681600101548360405180828051906020019080838360005b83811015610f1f578082015181840152602081019050610f04565b50505050905090810190601f168015610f4c5780820380516001836020036101000a031916815260200191505b5091505060006040518083038185875af1925050501515610f6c57600080fd5b60018160040160016101000a81548160ff021916908315150217905550610fac565b60008160040160016101000a81548160ff0219169083151502179055505b7fd220b7272a8b6d0d7d6bcdace67b936a8f175e6d5c1b3ee438b72256b32ab3af83826006015483600501548460040160019054906101000a900460ff16604051808581526020018481526020018381526020018215151515815260200194505050505060405180910390a1505050565b60066020528060005260406000206000915090505481565b60055481565b60078181548110151561104a57fe5b90600052602060002090600302016000915090508060000160009054906101000a900473ffffffffffffffffffffffffffffffffffffffff1690806001018054600181600116156101000203166002900480601f01602080910402602001604051908101604052809291908181526020018280546001816001161561010002031660029004801561111c5780601f106110f15761010080835404028352916020019161111c565b820191906000526020600020905b8154815290600101906020018083116110ff57829003601f168201915b5050505050908060020154905083565b60025481565b60015481565b6000809054906101000a900473ffffffffffffffffffffffffffffffffffffffff1681565b60008290508073ffffffffffffffffffffffffffffffffffffffff166323b872dd8630876040518463ffffffff167c0100000000000000000000000000000000000000000000000000000000028152600401808473ffffffffffffffffffffffffffffffffffffffff1673ffffffffffffffffffffffffffffffffffffffff1681526020018373ffffffffffffffffffffffffffffffffffffffff1673ffffffffffffffffffffffffffffffffffffffff1681526020018281526020019350505050602060405180830381600087803b151561123857600080fd5b5af1151561124557600080fd5b50505060405180519050151561125a57600080fd5b7f0eeb71b8926d7ed8f47a2cedf6b9b204e2001344c7fa20c696c9f06ea7c413c685858585604051808573ffffffffffffffffffffffffffffffffffffffff1673ffffffffffffffffffffffffffffffffffffffff1681526020018481526020018373ffffffffffffffffffffffffffffffffffffffff1673ffffffffffffffffffffffffffffffffffffffff16815260200180602001828103825283818151815260200191508051906020019080838360005b8381101561132957808201518184015260208101905061130e565b50505050905090810190601f1680156113565780820380516001836020036101000a031916815260200191505b509550505050505060405180910390a15050505050565b60035481565b6000806000600660003373ffffffffffffffffffffffffffffffffffffffff1673ffffffffffffffffffffffffffffffffffffffff16815260200190815260200160002054141515156113c557600080fd5b600480548091906001016113d99190611ebc565b91506004828154811015156113ea57fe5b90600052602060002090600a02019050858160000160006101000a81548173ffffffffffffffffffffffffffffffffffffffff021916908373ffffffffffffffffffffffffffffffffffffffff1602179055508481600101819055508381600201908051906020019061145e929190611eee565b50858584604051808473ffffffffffffffffffffffffffffffffffffffff1673ffffffffffffffffffffffffffffffffffffffff166c0100000000000000000000000002815260140183815260200182805190602001908083835b6020831015156114de57805182526020820191506020810190506020830392506114b9565b6001836020036101000a03801982511681845116808217855250505050505090500193505050506040518091039020816007018160001916905550603c600254024201816003018190555060008160040160006101000a81548160ff02191690831515021790555060008160040160016101000a81548160ff021916908315150217905550600081600501819055507f646fec02522b41e7125cfc859a64fd4f4cefd5dc3b6237ca0abe251ded1fa88182878787604051808581526020018473ffffffffffffffffffffffffffffffffffffffff1673ffffffffffffffffffffffffffffffffffffffff16815260200183815260200180602001828103825283818151815260200191508051906020019080838360005b838110156116105780820151818401526020810190506115f5565b50505050905090810190601f16801561163d5780820380516001836020036101000a031916815260200191505b509550505050505060405180910390a16001820160058190555081915050949350505050565b600080600660003373ffffffffffffffffffffffffffffffffffffffff1673ffffffffffffffffffffffffffffffffffffffff16815260200190815260200160002054141515156116b357600080fd5b6116c985670de0b6b3a764000086028585611373565b9050949350505050565b6000809054906101000a900473ffffffffffffffffffffffffffffffffffffffff1673ffffffffffffffffffffffffffffffffffffffff163373ffffffffffffffffffffffffffffffffffffffff1614151561172e57600080fd5b8260018190555081600281905550806003819055507fa439d3fa452be5e0e1e24a8145e715f4fd8b9c08c96a42fd82a855a85e5d57de60015460025460035460405180848152602001838152602001828152602001935050505060405180910390a1505050565b60008060009054906101000a900473ffffffffffffffffffffffffffffffffffffffff1673ffffffffffffffffffffffffffffffffffffffff163373ffffffffffffffffffffffffffffffffffffffff161415156117f257600080fd5b600660008473ffffffffffffffffffffffffffffffffffffffff1673ffffffffffffffffffffffffffffffffffffffff168152602001908152602001600020549050600081141561189d57600780549050600660008573ffffffffffffffffffffffffffffffffffffffff1673ffffffffffffffffffffffffffffffffffffffff168152602001908152602001600020819055506007805480919060010161189a9190611e8a565b90505b6060604051908101604052808473ffffffffffffffffffffffffffffffffffffffff168152602001838152602001428152506007828154811015156118de57fe5b906000526020600020906003020160008201518160000160006101000a81548173ffffffffffffffffffffffffffffffffffffffff021916908373ffffffffffffffffffffffffffffffffffffffff160217905550602082015181600101908051906020019061194f929190611f6e565b50604082015181600201559050507f27b022af4a8347100c7a041ce5ccf8e14d644ff05de696315196faae8cd50c9b836001604051808373ffffffffffffffffffffffffffffffffffffffff1673ffffffffffffffffffffffffffffffffffffffff168152602001821515151581526020019250505060405180910390a1505050565b6000806000600660003373ffffffffffffffffffffffffffffffffffffffff1673ffffffffffffffffffffffffffffffffffffffff1681526020019081526020016000205414151515611a2457600080fd5b600485815481101515611a3357fe5b90600052602060002090600a020190508060090160003373ffffffffffffffffffffffffffffffffffffffff1673ffffffffffffffffffffffffffffffffffffffff16815260200190815260200160002060009054906101000a900460ff16151515611a9e57600080fd5b60018160090160003373ffffffffffffffffffffffffffffffffffffffff1673ffffffffffffffffffffffffffffffffffffffff16815260200190815260200160002060006101000a81548160ff02191690831515021790555080600501600081548092919060010191905055508315611b2b578060060160008154809291906001019190505550611b41565b8060060160008154809291906001900391905055505b7fc34f869b7ff431b034b7b9aea9822dac189a685e0b015c7d1be3add3f89128e88585338660405180858152602001841515151581526020018373ffffffffffffffffffffffffffffffffffffffff1673ffffffffffffffffffffffffffffffffffffffff16815260200180602001828103825283818151815260200191508051906020019080838360005b83811015611be8578082015181840152602081019050611bcd565b50505050905090810190601f168015611c155780820380516001836020036101000a031916815260200191505b509550505050505060405180910390a180600501549150509392505050565b600080600486815481101515611c4657fe5b90600052602060002090600a02019050848484604051808473ffffffffffffffffffffffffffffffffffffffff1673ffffffffffffffffffffffffffffffffffffffff166c0100000000000000000000000002815260140183815260200182805190602001908083835b602083101515611cd55780518252602082019150602081019050602083039250611cb0565b6001836020036101000a038019825116818451168082178552505050505050905001935050505060405180910390206000191681600701546000191614915050949350505050565b6000809054906101000a900473ffffffffffffffffffffffffffffffffffffffff1673ffffffffffffffffffffffffffffffffffffffff163373ffffffffffffffffffffffffffffffffffffffff16141515611d7857600080fd5b806000806101000a81548173ffffffffffffffffffffffffffffffffffffffff021916908373ffffffffffffffffffffffffffffffffffffffff16021790555050565b828054600181600116156101000203166002900490600052602060002090601f016020900481019282601f10611df45780548555611e31565b82800160010185558215611e3157600052602060002091601f016020900482015b82811115611e30578254825591600101919060010190611e15565b5b509050611e3e9190611fee565b5090565b50805460018160011615610100020316600290046000825580601f10611e685750611e87565b601f016020900490600052602060002090810190611e869190611fee565b5b50565b815481835581811511611eb757600302816003028360005260206000209182019101611eb69190612013565b5b505050565b815481835581811511611ee957600a0281600a028360005260206000209182019101611ee89190612071565b5b505050565b828054600181600116156101000203166002900490600052602060002090601f016020900481019282601f10611f2f57805160ff1916838001178555611f5d565b82800160010185558215611f5d579182015b82811115611f5c578251825591602001919060010190611f41565b5b509050611f6a9190611fee565b5090565b828054600181600116156101000203166002900490600052602060002090601f016020900481019282601f10611faf57805160ff1916838001178555611fdd565b82800160010185558215611fdd579182015b82811115611fdc578251825591602001919060010190611fc1565b5b509050611fea9190611fee565b5090565b61201091905b8082111561200c576000816000905550600101611ff4565b5090565b90565b61206e91905b8082111561206a57600080820160006101000a81549073ffffffffffffffffffffffffffffffffffffffff02191690556001820160006120599190611e42565b600282016000905550600301612019565b5090565b90565b61212491905b8082111561212057600080820160006101000a81549073ffffffffffffffffffffffffffffffffffffffff021916905560018201600090556002820160006120bf9190611e42565b60038201600090556004820160006101000a81549060ff02191690556004820160016101000a81549060ff02191690556005820160009055600682016000905560078201600090556008820160006121179190612127565b50600a01612077565b5090565b90565b5080546000825560020290600052602060002090810190612148919061214b565b50565b6121b291905b808211156121ae57600080820160006101000a81549060ff02191690556000820160016101000a81549073ffffffffffffffffffffffffffffffffffffffff02191690556001820160006121a59190611e42565b50600201612151565b5090565b905600a165627a7a72305820e8ceb92152294f1ad3de46d9c1ddc4c460309c86b4cd7c9b9573b86d6d2bed750029",
  "source": "pragma solidity ^0.4.16;\n\nimport \"./libs/ownable.sol\";\n\n\ncontract tokenRecipient {\n    event receivedEther(address sender, uint amount);\n    event receivedTokens(address _from, uint256 _value, address _token, bytes _extraData);\n\n    function receiveApproval(address _from, uint256 _value, address _token, bytes _extraData) public {\n        Token t = Token(_token);\n        require(t.transferFrom(_from, this, _value));\n        receivedTokens(_from, _value, _token, _extraData);\n    }\n\n    function () payable  public {\n        receivedEther(msg.sender, msg.value);\n    }\n}\n\ninterface Token {\n    function transferFrom(address _from, address _to, uint256 _value) public returns (bool success);\n}\n\ncontract Congress is ownable, tokenRecipient {\n    // Contract Variables and events\n    uint public minimumQuorum;\n    uint public debatingPeriodInMinutes;\n    int public majorityMargin;\n    Proposal[] public proposals;\n    uint public numProposals;\n    mapping (address => uint) public memberId;\n    Member[] public members;\n\n    event ProposalAdded(uint proposalID, address recipient, uint amount, string description);\n    event Voted(uint proposalID, bool position, address voter, string justification);\n    event ProposalTallied(uint proposalID, int result, uint quorum, bool active);\n    event MembershipChanged(address member, bool isMember);\n    event ChangeOfRules(uint newMinimumQuorum, uint newDebatingPeriodInMinutes, int newMajorityMargin);\n\n    struct Proposal {\n        address recipient;\n        uint amount;\n        string description;\n        uint minExecutionDate;\n        bool executed;\n        bool proposalPassed;\n        uint numberOfVotes;\n        int currentResult;\n        bytes32 proposalHash;\n        Vote[] votes;\n        mapping (address => bool) voted;\n    }\n\n    struct Member {\n        address member;\n        string name;\n        uint memberSince;\n    }\n\n    struct Vote {\n        bool inSupport;\n        address voter;\n        string justification;\n    }\n\n    // Modifier that allows only shareholders to vote and create new proposals\n    modifier onlyMembers {\n        require(memberId[msg.sender] != 0);\n        _;\n    }\n\n    /**\n     * Constructor function\n     */\n    function Congress (\n        uint minimumQuorumForProposals,\n        uint minutesForDebate,\n        int marginOfVotesForMajority\n    )  payable public {\n        changeVotingRules(minimumQuorumForProposals, minutesForDebate, marginOfVotesForMajority);\n        // Its necessary to add an empty first member\n        addMember(0, \"\");\n        // and let's add the founder, to save a step later\n        addMember(owner, 'founder');\n    }\n\n    /**\n     * Add member\n     *\n     * Make `targetMember` a member named `memberName`\n     *\n     * @param targetMember ethereum address to be added\n     * @param memberName public name for that member\n     */\n    function addMember(address targetMember, string memberName) onlyOwner public {\n        uint id = memberId[targetMember];\n        if (id == 0) {\n            memberId[targetMember] = members.length;\n            id = members.length++;\n        }\n\n        members[id] = Member({member: targetMember, memberSince: now, name: memberName});\n        MembershipChanged(targetMember, true);\n    }\n\n    /**\n     * Remove member\n     *\n     * @notice Remove membership from `targetMember`\n     *\n     * @param targetMember ethereum address to be removed\n     */\n    function removeMember(address targetMember) onlyOwner public {\n        require(memberId[targetMember] != 0);\n\n        for (uint i = memberId[targetMember]; i<members.length-1; i++){\n            members[i] = members[i+1];\n        }\n        delete members[members.length-1];\n        members.length--;\n    }\n\n    /**\n     * Change voting rules\n     *\n     * Make so that proposals need to be discussed for at least `minutesForDebate/60` hours,\n     * have at least `minimumQuorumForProposals` votes, and have 50% + `marginOfVotesForMajority` votes to be executed\n     *\n     * @param minimumQuorumForProposals how many members must vote on a proposal for it to be executed\n     * @param minutesForDebate the minimum amount of delay between when a proposal is made and when it can be executed\n     * @param marginOfVotesForMajority the proposal needs to have 50% plus this number\n     */\n    function changeVotingRules(\n        uint minimumQuorumForProposals,\n        uint minutesForDebate,\n        int marginOfVotesForMajority\n    ) onlyOwner public {\n        minimumQuorum = minimumQuorumForProposals;\n        debatingPeriodInMinutes = minutesForDebate;\n        majorityMargin = marginOfVotesForMajority;\n\n        ChangeOfRules(minimumQuorum, debatingPeriodInMinutes, majorityMargin);\n    }\n\n    /**\n     * Add Proposal\n     *\n     * Propose to send `weiAmount / 1e18` ether to `beneficiary` for `jobDescription`. `transactionBytecode ? Contains : Does not contain` code.\n     *\n     * @param beneficiary who to send the ether to\n     * @param weiAmount amount of ether to send, in wei\n     * @param jobDescription Description of job\n     * @param transactionBytecode bytecode of transaction\n     */\n    function newProposal(\n        address beneficiary,\n        uint weiAmount,\n        string jobDescription,\n        bytes transactionBytecode\n    )\n        onlyMembers public\n        returns (uint proposalID)\n    {\n        proposalID = proposals.length++;\n        Proposal storage p = proposals[proposalID];\n        p.recipient = beneficiary;\n        p.amount = weiAmount;\n        p.description = jobDescription;\n        p.proposalHash = keccak256(beneficiary, weiAmount, transactionBytecode);\n        p.minExecutionDate = now + debatingPeriodInMinutes * 1 minutes;\n        p.executed = false;\n        p.proposalPassed = false;\n        p.numberOfVotes = 0;\n        ProposalAdded(proposalID, beneficiary, weiAmount, jobDescription);\n        numProposals = proposalID+1;\n\n        return proposalID;\n    }\n\n    /**\n     * Add proposal in Ether\n     *\n     * Propose to send `etherAmount` ether to `beneficiary` for `jobDescription`. `transactionBytecode ? Contains : Does not contain` code.\n     * This is a convenience function to use if the amount to be given is in round number of ether units.\n     *\n     * @param beneficiary who to send the ether to\n     * @param etherAmount amount of ether to send\n     * @param jobDescription Description of job\n     * @param transactionBytecode bytecode of transaction\n     */\n    function newProposalInEther(\n        address beneficiary,\n        uint etherAmount,\n        string jobDescription,\n        bytes transactionBytecode\n    )\n        onlyMembers public\n        returns (uint proposalID)\n    {\n        return newProposal(beneficiary, etherAmount * 1 ether, jobDescription, transactionBytecode);\n    }\n\n    /**\n     * Check if a proposal code matches\n     *\n     * @param proposalNumber ID number of the proposal to query\n     * @param beneficiary who to send the ether to\n     * @param weiAmount amount of ether to send\n     * @param transactionBytecode bytecode of transaction\n     */\n    function checkProposalCode(\n        uint proposalNumber,\n        address beneficiary,\n        uint weiAmount,\n        bytes transactionBytecode\n    )\n        constant public\n        returns (bool codeChecksOut)\n    {\n        Proposal storage p = proposals[proposalNumber];\n        return p.proposalHash == keccak256(beneficiary, weiAmount, transactionBytecode);\n    }\n\n    /**\n     * Log a vote for a proposal\n     *\n     * Vote `supportsProposal? in support of : against` proposal #`proposalNumber`\n     *\n     * @param proposalNumber number of proposal\n     * @param supportsProposal either in favor or against it\n     * @param justificationText optional justification text\n     */\n    function vote(\n        uint proposalNumber,\n        bool supportsProposal,\n        string justificationText\n    )\n        onlyMembers public\n        returns (uint voteID)\n    {\n        Proposal storage p = proposals[proposalNumber]; // Get the proposal\n        require(!p.voted[msg.sender]);                  // If has already voted, cancel\n        p.voted[msg.sender] = true;                     // Set this voter as having voted\n        p.numberOfVotes++;                              // Increase the number of votes\n        if (supportsProposal) {                         // If they support the proposal\n            p.currentResult++;                          // Increase score\n        } else {                                        // If they don't\n            p.currentResult--;                          // Decrease the score\n        }\n\n        // Create a log of this event\n        Voted(proposalNumber,  supportsProposal, msg.sender, justificationText);\n        return p.numberOfVotes;\n    }\n\n    /**\n     * Finish vote\n     *\n     * Count the votes proposal #`proposalNumber` and execute it if approved\n     *\n     * @param proposalNumber proposal number\n     * @param transactionBytecode optional: if the transaction contained a bytecode, you need to send it\n     */\n    function executeProposal(uint proposalNumber, bytes transactionBytecode) public {\n        Proposal storage p = proposals[proposalNumber];\n\n        require(now > p.minExecutionDate                                            // If it is past the voting deadline\n            && !p.executed                                                         // and it has not already been executed\n            && p.proposalHash == keccak256(p.recipient, p.amount, transactionBytecode)  // and the supplied code matches the proposal\n            && p.numberOfVotes >= minimumQuorum);                                  // and a minimum quorum has been reached...\n\n        // ...then execute result\n\n        if (p.currentResult > majorityMargin) {\n            // Proposal passed; execute the transaction\n\n            p.executed = true; // Avoid recursive calling\n            require(p.recipient.call.value(p.amount)(transactionBytecode));\n\n            p.proposalPassed = true;\n        } else {\n            // Proposal failed\n            p.proposalPassed = false;\n        }\n\n        // Fire Events\n        ProposalTallied(proposalNumber, p.currentResult, p.numberOfVotes, p.proposalPassed);\n    }\n}\n",
  "sourcePath": "/home/andrey/Code/w12/prototype-of-DAO-fund/contracts/Contracts.sol",
  "compiler": {
    "name": "solc",
    "version": "0.4.21+commit.dfe3193c.Emscripten.clang"
  },
  "schemaVersion": "2.0.0",
  "updatedAt": "2018-04-11T20:47:15.390Z"
}