{
  "contractName": "tokenRecipient",
  "abi": [
    {
      "payable": true,
      "stateMutability": "payable",
      "type": "fallback"
    },
    {
      "anonymous": false,
      "inputs": [
        {
          "indexed": false,
          "name": "sender",
          "type": "address"
        },
        {
          "indexed": false,
          "name": "amount",
          "type": "uint256"
        }
      ],
      "name": "receivedEther",
      "type": "event"
    },
    {
      "anonymous": false,
      "inputs": [
        {
          "indexed": false,
          "name": "_from",
          "type": "address"
        },
        {
          "indexed": false,
          "name": "_value",
          "type": "uint256"
        },
        {
          "indexed": false,
          "name": "_token",
          "type": "address"
        },
        {
          "indexed": false,
          "name": "_extraData",
          "type": "bytes"
        }
      ],
      "name": "receivedTokens",
      "type": "event"
    },
    {
      "constant": false,
      "inputs": [
        {
          "name": "_from",
          "type": "address"
        },
        {
          "name": "_value",
          "type": "uint256"
        },
        {
          "name": "_token",
          "type": "address"
        },
        {
          "name": "_extraData",
          "type": "bytes"
        }
      ],
      "name": "receiveApproval",
      "outputs": [],
      "payable": false,
      "stateMutability": "nonpayable",
      "type": "function"
    }
  ],
  "bytecode": "0x6060604052341561000f57600080fd5b61038e8061001e6000396000f300606060405260043610610041576000357c0100000000000000000000000000000000000000000000000000000000900463ffffffff1680638f4ffcb1146100ae575b7fa398b89ba344a0b23a0b9de53db298b2a1a868b396c1878b7e9dcbafecd49b133334604051808373ffffffffffffffffffffffffffffffffffffffff1673ffffffffffffffffffffffffffffffffffffffff1681526020018281526020019250505060405180910390a1005b34156100b957600080fd5b610150600480803573ffffffffffffffffffffffffffffffffffffffff1690602001909190803590602001909190803573ffffffffffffffffffffffffffffffffffffffff1690602001909190803590602001908201803590602001908080601f01602080910402602001604051908101604052809392919081815260200183838082843782019150505050505091905050610152565b005b60008290508073ffffffffffffffffffffffffffffffffffffffff166323b872dd8630876040518463ffffffff167c0100000000000000000000000000000000000000000000000000000000028152600401808473ffffffffffffffffffffffffffffffffffffffff1673ffffffffffffffffffffffffffffffffffffffff1681526020018373ffffffffffffffffffffffffffffffffffffffff1673ffffffffffffffffffffffffffffffffffffffff1681526020018281526020019350505050602060405180830381600087803b151561022d57600080fd5b5af1151561023a57600080fd5b50505060405180519050151561024f57600080fd5b7f0eeb71b8926d7ed8f47a2cedf6b9b204e2001344c7fa20c696c9f06ea7c413c685858585604051808573ffffffffffffffffffffffffffffffffffffffff1673ffffffffffffffffffffffffffffffffffffffff1681526020018481526020018373ffffffffffffffffffffffffffffffffffffffff1673ffffffffffffffffffffffffffffffffffffffff16815260200180602001828103825283818151815260200191508051906020019080838360005b8381101561031e578082015181840152602081019050610303565b50505050905090810190601f16801561034b5780820380516001836020036101000a031916815260200191505b509550505050505060405180910390a150505050505600a165627a7a7230582004a764155069caa672aa8b164e50766e3782938931eddbd2f9a5f935062a3d970029",
  "source": "pragma solidity ^0.4.16;\n\nimport \"./libs/ownable.sol\";\n\n\ncontract tokenRecipient {\n    event receivedEther(address sender, uint amount);\n    event receivedTokens(address _from, uint256 _value, address _token, bytes _extraData);\n\n    function receiveApproval(address _from, uint256 _value, address _token, bytes _extraData) public {\n        Token t = Token(_token);\n        require(t.transferFrom(_from, this, _value));\n        receivedTokens(_from, _value, _token, _extraData);\n    }\n\n    function () payable  public {\n        receivedEther(msg.sender, msg.value);\n    }\n}\n\ninterface Token {\n    function transferFrom(address _from, address _to, uint256 _value) public returns (bool success);\n}\n\ncontract Congress is ownable, tokenRecipient {\n    // Contract Variables and events\n    uint public minimumQuorum;\n    uint public debatingPeriodInMinutes;\n    int public majorityMargin;\n    Proposal[] public proposals;\n    uint public numProposals;\n    mapping (address => uint) public memberId;\n    Member[] public members;\n\n    event ProposalAdded(uint proposalID, address recipient, uint amount, string description);\n    event Voted(uint proposalID, bool position, address voter, string justification);\n    event ProposalTallied(uint proposalID, int result, uint quorum, bool active);\n    event MembershipChanged(address member, bool isMember);\n    event ChangeOfRules(uint newMinimumQuorum, uint newDebatingPeriodInMinutes, int newMajorityMargin);\n\n    struct Proposal {\n        address recipient;\n        uint amount;\n        string description;\n        uint minExecutionDate;\n        bool executed;\n        bool proposalPassed;\n        uint numberOfVotes;\n        int currentResult;\n        bytes32 proposalHash;\n        Vote[] votes;\n        mapping (address => bool) voted;\n    }\n\n    struct Member {\n        address member;\n        string name;\n        uint memberSince;\n    }\n\n    struct Vote {\n        bool inSupport;\n        address voter;\n        string justification;\n    }\n\n    // Modifier that allows only shareholders to vote and create new proposals\n    modifier onlyMembers {\n        require(memberId[msg.sender] != 0);\n        _;\n    }\n\n    /**\n     * Constructor function\n     */\n    function Congress (\n        uint minimumQuorumForProposals,\n        uint minutesForDebate,\n        int marginOfVotesForMajority\n    )  payable public {\n        changeVotingRules(minimumQuorumForProposals, minutesForDebate, marginOfVotesForMajority);\n        // It’s necessary to add an empty first member\n        addMember(0, \"\");\n        // and let's add the founder, to save a step later\n        addMember(owner, 'founder');\n    }\n\n    /**\n     * Add member\n     *\n     * Make `targetMember` a member named `memberName`\n     *\n     * @param targetMember ethereum address to be added\n     * @param memberName public name for that member\n     */\n    function addMember(address targetMember, string memberName) onlyOwner public {\n        uint id = memberId[targetMember];\n        if (id == 0) {\n            memberId[targetMember] = members.length;\n            id = members.length++;\n        }\n\n        members[id] = Member({member: targetMember, memberSince: now, name: memberName});\n        MembershipChanged(targetMember, true);\n    }\n\n    /**\n     * Remove member\n     *\n     * @notice Remove membership from `targetMember`\n     *\n     * @param targetMember ethereum address to be removed\n     */\n    function removeMember(address targetMember) onlyOwner public {\n        require(memberId[targetMember] != 0);\n\n        for (uint i = memberId[targetMember]; i<members.length-1; i++){\n            members[i] = members[i+1];\n        }\n        delete members[members.length-1];\n        members.length--;\n    }\n\n    /**\n     * Change voting rules\n     *\n     * Make so that proposals need to be discussed for at least `minutesForDebate/60` hours,\n     * have at least `minimumQuorumForProposals` votes, and have 50% + `marginOfVotesForMajority` votes to be executed\n     *\n     * @param minimumQuorumForProposals how many members must vote on a proposal for it to be executed\n     * @param minutesForDebate the minimum amount of delay between when a proposal is made and when it can be executed\n     * @param marginOfVotesForMajority the proposal needs to have 50% plus this number\n     */\n    function changeVotingRules(\n        uint minimumQuorumForProposals,\n        uint minutesForDebate,\n        int marginOfVotesForMajority\n    ) onlyOwner public {\n        minimumQuorum = minimumQuorumForProposals;\n        debatingPeriodInMinutes = minutesForDebate;\n        majorityMargin = marginOfVotesForMajority;\n\n        ChangeOfRules(minimumQuorum, debatingPeriodInMinutes, majorityMargin);\n    }\n\n    /**\n     * Add Proposal\n     *\n     * Propose to send `weiAmount / 1e18` ether to `beneficiary` for `jobDescription`. `transactionBytecode ? Contains : Does not contain` code.\n     *\n     * @param beneficiary who to send the ether to\n     * @param weiAmount amount of ether to send, in wei\n     * @param jobDescription Description of job\n     * @param transactionBytecode bytecode of transaction\n     */\n    function newProposal(\n        address beneficiary,\n        uint weiAmount,\n        string jobDescription,\n        bytes transactionBytecode\n    )\n        onlyMembers public\n        returns (uint proposalID)\n    {\n        proposalID = proposals.length++;\n        Proposal storage p = proposals[proposalID];\n        p.recipient = beneficiary;\n        p.amount = weiAmount;\n        p.description = jobDescription;\n        p.proposalHash = keccak256(beneficiary, weiAmount, transactionBytecode);\n        p.minExecutionDate = now + debatingPeriodInMinutes * 1 minutes;\n        p.executed = false;\n        p.proposalPassed = false;\n        p.numberOfVotes = 0;\n        ProposalAdded(proposalID, beneficiary, weiAmount, jobDescription);\n        numProposals = proposalID+1;\n\n        return proposalID;\n    }\n\n    /**\n     * Add proposal in Ether\n     *\n     * Propose to send `etherAmount` ether to `beneficiary` for `jobDescription`. `transactionBytecode ? Contains : Does not contain` code.\n     * This is a convenience function to use if the amount to be given is in round number of ether units.\n     *\n     * @param beneficiary who to send the ether to\n     * @param etherAmount amount of ether to send\n     * @param jobDescription Description of job\n     * @param transactionBytecode bytecode of transaction\n     */\n    function newProposalInEther(\n        address beneficiary,\n        uint etherAmount,\n        string jobDescription,\n        bytes transactionBytecode\n    )\n        onlyMembers public\n        returns (uint proposalID)\n    {\n        return newProposal(beneficiary, etherAmount * 1 ether, jobDescription, transactionBytecode);\n    }\n\n    /**\n     * Check if a proposal code matches\n     *\n     * @param proposalNumber ID number of the proposal to query\n     * @param beneficiary who to send the ether to\n     * @param weiAmount amount of ether to send\n     * @param transactionBytecode bytecode of transaction\n     */\n    function checkProposalCode(\n        uint proposalNumber,\n        address beneficiary,\n        uint weiAmount,\n        bytes transactionBytecode\n    )\n        constant public\n        returns (bool codeChecksOut)\n    {\n        Proposal storage p = proposals[proposalNumber];\n        return p.proposalHash == keccak256(beneficiary, weiAmount, transactionBytecode);\n    }\n\n    /**\n     * Log a vote for a proposal\n     *\n     * Vote `supportsProposal? in support of : against` proposal #`proposalNumber`\n     *\n     * @param proposalNumber number of proposal\n     * @param supportsProposal either in favor or against it\n     * @param justificationText optional justification text\n     */\n    function vote(\n        uint proposalNumber,\n        bool supportsProposal,\n        string justificationText\n    )\n        onlyMembers public\n        returns (uint voteID)\n    {\n        Proposal storage p = proposals[proposalNumber]; // Get the proposal\n        require(!p.voted[msg.sender]);                  // If has already voted, cancel\n        p.voted[msg.sender] = true;                     // Set this voter as having voted\n        p.numberOfVotes++;                              // Increase the number of votes\n        if (supportsProposal) {                         // If they support the proposal\n            p.currentResult++;                          // Increase score\n        } else {                                        // If they don't\n            p.currentResult--;                          // Decrease the score\n        }\n\n        // Create a log of this event\n        Voted(proposalNumber,  supportsProposal, msg.sender, justificationText);\n        return p.numberOfVotes;\n    }\n\n    /**\n     * Finish vote\n     *\n     * Count the votes proposal #`proposalNumber` and execute it if approved\n     *\n     * @param proposalNumber proposal number\n     * @param transactionBytecode optional: if the transaction contained a bytecode, you need to send it\n     */\n    function executeProposal(uint proposalNumber, bytes transactionBytecode) public {\n        Proposal storage p = proposals[proposalNumber];\n\n        require(now > p.minExecutionDate                                            // If it is past the voting deadline\n            && !p.executed                                                         // and it has not already been executed\n            && p.proposalHash == keccak256(p.recipient, p.amount, transactionBytecode)  // and the supplied code matches the proposal\n            && p.numberOfVotes >= minimumQuorum);                                  // and a minimum quorum has been reached...\n\n        // ...then execute result\n\n        if (p.currentResult > majorityMargin) {\n            // Proposal passed; execute the transaction\n\n            p.executed = true; // Avoid recursive calling\n            require(p.recipient.call.value(p.amount)(transactionBytecode));\n\n            p.proposalPassed = true;\n        } else {\n            // Proposal failed\n            p.proposalPassed = false;\n        }\n\n        // Fire Events\n        ProposalTallied(proposalNumber, p.currentResult, p.numberOfVotes, p.proposalPassed);\n    }\n}\n",
  "sourcePath": "/home/andrey/Code/w12/prototype-of-DAO-fund/contracts/Contracts.sol",
  "compiler": {
    "name": "solc",
    "version": "0.4.21+commit.dfe3193c.Emscripten.clang"
  },
  "schemaVersion": "2.0.0",
  "updatedAt": "2018-04-11T20:47:15.401Z"
}